{
	".deps/github/Uniswap/v4-core/contracts/libraries/FeeLibrary.sol": {
		"FeeLibrary": {
			"abi": [
				{
					"inputs": [],
					"name": "DYNAMIC_FEE_FLAG",
					"outputs": [
						{
							"internalType": "uint24",
							"name": "",
							"type": "uint24"
						}
					],
					"stateMutability": "view",
					"type": "function"
				},
				{
					"inputs": [],
					"name": "HOOK_SWAP_FEE_FLAG",
					"outputs": [
						{
							"internalType": "uint24",
							"name": "",
							"type": "uint24"
						}
					],
					"stateMutability": "view",
					"type": "function"
				},
				{
					"inputs": [],
					"name": "HOOK_WITHDRAW_FEE_FLAG",
					"outputs": [
						{
							"internalType": "uint24",
							"name": "",
							"type": "uint24"
						}
					],
					"stateMutability": "view",
					"type": "function"
				},
				{
					"inputs": [],
					"name": "STATIC_FEE_MASK",
					"outputs": [
						{
							"internalType": "uint24",
							"name": "",
							"type": "uint24"
						}
					],
					"stateMutability": "view",
					"type": "function"
				}
			],
			"devdoc": {
				"kind": "dev",
				"methods": {},
				"version": 1
			},
			"evm": {
				"assembly": "    /* \".deps/github/Uniswap/v4-core/contracts/libraries/FeeLibrary.sol\":71:982  library FeeLibrary {... */\n  dataSize(sub_0)\n  dataOffset(sub_0)\n  0x0b\n  dup3\n  dup3\n  dup3\n  codecopy\n  dup1\n  mload\n  0x00\n  byte\n  0x73\n  eq\n  tag_1\n  jumpi\n  mstore(0x00, 0x4e487b7100000000000000000000000000000000000000000000000000000000)\n  mstore(0x04, 0x00)\n  revert(0x00, 0x24)\ntag_1:\n  mstore(0x00, address)\n  0x73\n  dup2\n  mstore8\n  dup3\n  dup2\n  return\nstop\n\nsub_0: assembly {\n        /* \".deps/github/Uniswap/v4-core/contracts/libraries/FeeLibrary.sol\":71:982  library FeeLibrary {... */\n      eq(address, deployTimeAddress())\n      mstore(0x40, 0x80)\n      jumpi(tag_1, lt(calldatasize, 0x04))\n      shr(0xe0, calldataload(0x00))\n      dup1\n      0x4f7deff7\n      eq\n      tag_2\n      jumpi\n      dup1\n      0xc7a97b4e\n      eq\n      tag_3\n      jumpi\n      dup1\n      0xd11e7dee\n      eq\n      tag_4\n      jumpi\n      dup1\n      0xf26ef49d\n      eq\n      tag_5\n      jumpi\n    tag_1:\n      0x00\n      dup1\n      revert\n        /* \".deps/github/Uniswap/v4-core/contracts/libraries/FeeLibrary.sol\":281:337  uint24 public constant HOOK_WITHDRAW_FEE_FLAG = 0x200000 */\n    tag_2:\n      tag_6\n      tag_7\n      jump\t// in\n    tag_6:\n      mload(0x40)\n      tag_8\n      swap2\n      swap1\n      tag_9\n      jump\t// in\n    tag_8:\n      mload(0x40)\n      dup1\n      swap2\n      sub\n      swap1\n      return\n        /* \".deps/github/Uniswap/v4-core/contracts/libraries/FeeLibrary.sol\":96:145  uint24 public constant STATIC_FEE_MASK = 0x0FFFFF */\n    tag_3:\n      tag_10\n      tag_11\n      jump\t// in\n    tag_10:\n      mload(0x40)\n      tag_12\n      swap2\n      swap1\n      tag_9\n      jump\t// in\n    tag_12:\n      mload(0x40)\n      dup1\n      swap2\n      sub\n      swap1\n      return\n        /* \".deps/github/Uniswap/v4-core/contracts/libraries/FeeLibrary.sol\":215:267  uint24 public constant HOOK_SWAP_FEE_FLAG = 0x400000 */\n    tag_4:\n      tag_13\n      tag_14\n      jump\t// in\n    tag_13:\n      mload(0x40)\n      tag_15\n      swap2\n      swap1\n      tag_9\n      jump\t// in\n    tag_15:\n      mload(0x40)\n      dup1\n      swap2\n      sub\n      swap1\n      return\n        /* \".deps/github/Uniswap/v4-core/contracts/libraries/FeeLibrary.sol\":151:201  uint24 public constant DYNAMIC_FEE_FLAG = 0x800000 */\n    tag_5:\n      tag_16\n      tag_17\n      jump\t// in\n    tag_16:\n      mload(0x40)\n      tag_18\n      swap2\n      swap1\n      tag_9\n      jump\t// in\n    tag_18:\n      mload(0x40)\n      dup1\n      swap2\n      sub\n      swap1\n      return\n        /* \".deps/github/Uniswap/v4-core/contracts/libraries/FeeLibrary.sol\":281:337  uint24 public constant HOOK_WITHDRAW_FEE_FLAG = 0x200000 */\n    tag_7:\n        /* \".deps/github/Uniswap/v4-core/contracts/libraries/FeeLibrary.sol\":329:337  0x200000 */\n      0x200000\n        /* \".deps/github/Uniswap/v4-core/contracts/libraries/FeeLibrary.sol\":281:337  uint24 public constant HOOK_WITHDRAW_FEE_FLAG = 0x200000 */\n      dup2\n      jump\t// out\n        /* \".deps/github/Uniswap/v4-core/contracts/libraries/FeeLibrary.sol\":96:145  uint24 public constant STATIC_FEE_MASK = 0x0FFFFF */\n    tag_11:\n        /* \".deps/github/Uniswap/v4-core/contracts/libraries/FeeLibrary.sol\":137:145  0x0FFFFF */\n      0x0fffff\n        /* \".deps/github/Uniswap/v4-core/contracts/libraries/FeeLibrary.sol\":96:145  uint24 public constant STATIC_FEE_MASK = 0x0FFFFF */\n      dup2\n      jump\t// out\n        /* \".deps/github/Uniswap/v4-core/contracts/libraries/FeeLibrary.sol\":215:267  uint24 public constant HOOK_SWAP_FEE_FLAG = 0x400000 */\n    tag_14:\n        /* \".deps/github/Uniswap/v4-core/contracts/libraries/FeeLibrary.sol\":259:267  0x400000 */\n      0x400000\n        /* \".deps/github/Uniswap/v4-core/contracts/libraries/FeeLibrary.sol\":215:267  uint24 public constant HOOK_SWAP_FEE_FLAG = 0x400000 */\n      dup2\n      jump\t// out\n        /* \".deps/github/Uniswap/v4-core/contracts/libraries/FeeLibrary.sol\":151:201  uint24 public constant DYNAMIC_FEE_FLAG = 0x800000 */\n    tag_17:\n        /* \".deps/github/Uniswap/v4-core/contracts/libraries/FeeLibrary.sol\":193:201  0x800000 */\n      0x800000\n        /* \".deps/github/Uniswap/v4-core/contracts/libraries/FeeLibrary.sol\":151:201  uint24 public constant DYNAMIC_FEE_FLAG = 0x800000 */\n      dup2\n      jump\t// out\n        /* \"#utility.yul\":7:98   */\n    tag_19:\n        /* \"#utility.yul\":43:50   */\n      0x00\n        /* \"#utility.yul\":83:91   */\n      0xffffff\n        /* \"#utility.yul\":76:81   */\n      dup3\n        /* \"#utility.yul\":72:92   */\n      and\n        /* \"#utility.yul\":61:92   */\n      swap1\n      pop\n        /* \"#utility.yul\":7:98   */\n      swap2\n      swap1\n      pop\n      jump\t// out\n        /* \"#utility.yul\":104:227   */\n    tag_20:\n        /* \"#utility.yul\":197:220   */\n      tag_24\n        /* \"#utility.yul\":214:219   */\n      dup2\n        /* \"#utility.yul\":197:220   */\n      tag_19\n      jump\t// in\n    tag_24:\n        /* \"#utility.yul\":192:195   */\n      dup3\n        /* \"#utility.yul\":185:221   */\n      mstore\n        /* \"#utility.yul\":104:227   */\n      pop\n      pop\n      jump\t// out\n        /* \"#utility.yul\":233:467   */\n    tag_9:\n        /* \"#utility.yul\":332:336   */\n      0x00\n        /* \"#utility.yul\":370:372   */\n      0x20\n        /* \"#utility.yul\":359:368   */\n      dup3\n        /* \"#utility.yul\":355:373   */\n      add\n        /* \"#utility.yul\":347:373   */\n      swap1\n      pop\n        /* \"#utility.yul\":383:460   */\n      tag_26\n        /* \"#utility.yul\":457:458   */\n      0x00\n        /* \"#utility.yul\":446:455   */\n      dup4\n        /* \"#utility.yul\":442:459   */\n      add\n        /* \"#utility.yul\":433:439   */\n      dup5\n        /* \"#utility.yul\":383:460   */\n      tag_20\n      jump\t// in\n    tag_26:\n        /* \"#utility.yul\":233:467   */\n      swap3\n      swap2\n      pop\n      pop\n      jump\t// out\n\n    auxdata: 0xa2646970667358221220f58882ef706f5342080e1303dfc9e5e22c568c40bd3845c1acc6c0fd27e3284264736f6c63430008140033\n}\n",
				"bytecode": {
					"linkReferences": {},
					"object": "61015961004e600b8282823980515f1a607314610042577f4e487b71000000000000000000000000000000000000000000000000000000005f525f60045260245ffd5b305f52607381538281f3fe7300000000000000000000000000000000000000003014608060405260043610610055575f3560e01c80634f7deff714610059578063c7a97b4e14610077578063d11e7dee14610095578063f26ef49d146100b3575b5f80fd5b6100616100d1565b60405161006e919061010a565b60405180910390f35b61007f6100d8565b60405161008c919061010a565b60405180910390f35b61009d6100df565b6040516100aa919061010a565b60405180910390f35b6100bb6100e6565b6040516100c8919061010a565b60405180910390f35b6220000081565b620fffff81565b6240000081565b6280000081565b5f62ffffff82169050919050565b610104816100ed565b82525050565b5f60208201905061011d5f8301846100fb565b9291505056fea2646970667358221220f58882ef706f5342080e1303dfc9e5e22c568c40bd3845c1acc6c0fd27e3284264736f6c63430008140033",
					"opcodes": "PUSH2 0x159 PUSH2 0x4E PUSH1 0xB DUP3 DUP3 DUP3 CODECOPY DUP1 MLOAD PUSH0 BYTE PUSH1 0x73 EQ PUSH2 0x42 JUMPI PUSH32 0x4E487B7100000000000000000000000000000000000000000000000000000000 PUSH0 MSTORE PUSH0 PUSH1 0x4 MSTORE PUSH1 0x24 PUSH0 REVERT JUMPDEST ADDRESS PUSH0 MSTORE PUSH1 0x73 DUP2 MSTORE8 DUP3 DUP2 RETURN INVALID PUSH20 0x0 ADDRESS EQ PUSH1 0x80 PUSH1 0x40 MSTORE PUSH1 0x4 CALLDATASIZE LT PUSH2 0x55 JUMPI PUSH0 CALLDATALOAD PUSH1 0xE0 SHR DUP1 PUSH4 0x4F7DEFF7 EQ PUSH2 0x59 JUMPI DUP1 PUSH4 0xC7A97B4E EQ PUSH2 0x77 JUMPI DUP1 PUSH4 0xD11E7DEE EQ PUSH2 0x95 JUMPI DUP1 PUSH4 0xF26EF49D EQ PUSH2 0xB3 JUMPI JUMPDEST PUSH0 DUP1 REVERT JUMPDEST PUSH2 0x61 PUSH2 0xD1 JUMP JUMPDEST PUSH1 0x40 MLOAD PUSH2 0x6E SWAP2 SWAP1 PUSH2 0x10A JUMP JUMPDEST PUSH1 0x40 MLOAD DUP1 SWAP2 SUB SWAP1 RETURN JUMPDEST PUSH2 0x7F PUSH2 0xD8 JUMP JUMPDEST PUSH1 0x40 MLOAD PUSH2 0x8C SWAP2 SWAP1 PUSH2 0x10A JUMP JUMPDEST PUSH1 0x40 MLOAD DUP1 SWAP2 SUB SWAP1 RETURN JUMPDEST PUSH2 0x9D PUSH2 0xDF JUMP JUMPDEST PUSH1 0x40 MLOAD PUSH2 0xAA SWAP2 SWAP1 PUSH2 0x10A JUMP JUMPDEST PUSH1 0x40 MLOAD DUP1 SWAP2 SUB SWAP1 RETURN JUMPDEST PUSH2 0xBB PUSH2 0xE6 JUMP JUMPDEST PUSH1 0x40 MLOAD PUSH2 0xC8 SWAP2 SWAP1 PUSH2 0x10A JUMP JUMPDEST PUSH1 0x40 MLOAD DUP1 SWAP2 SUB SWAP1 RETURN JUMPDEST PUSH3 0x200000 DUP2 JUMP JUMPDEST PUSH3 0xFFFFF DUP2 JUMP JUMPDEST PUSH3 0x400000 DUP2 JUMP JUMPDEST PUSH3 0x800000 DUP2 JUMP JUMPDEST PUSH0 PUSH3 0xFFFFFF DUP3 AND SWAP1 POP SWAP2 SWAP1 POP JUMP JUMPDEST PUSH2 0x104 DUP2 PUSH2 0xED JUMP JUMPDEST DUP3 MSTORE POP POP JUMP JUMPDEST PUSH0 PUSH1 0x20 DUP3 ADD SWAP1 POP PUSH2 0x11D PUSH0 DUP4 ADD DUP5 PUSH2 0xFB JUMP JUMPDEST SWAP3 SWAP2 POP POP JUMP INVALID LOG2 PUSH5 0x6970667358 0x22 SLT KECCAK256 CREATE2 DUP9 DUP3 0xEF PUSH17 0x6F5342080E1303DFC9E5E22C568C40BD38 GASLIMIT 0xC1 0xAC 0xC6 0xC0 REVERT 0x27 0xE3 0x28 TIMESTAMP PUSH5 0x736F6C6343 STOP ADDMOD EQ STOP CALLER "
				},
				"gasEstimates": {
					"creation": {
						"codeDepositCost": "69000",
						"executionCost": "143",
						"totalCost": "69143"
					},
					"external": {
						"DYNAMIC_FEE_FLAG()": "359",
						"HOOK_SWAP_FEE_FLAG()": "337",
						"HOOK_WITHDRAW_FEE_FLAG()": "293",
						"STATIC_FEE_MASK()": "315"
					},
					"internal": {
						"getStaticFee(uint24)": "infinite",
						"hasHookSwapFee(uint24)": "infinite",
						"hasHookWithdrawFee(uint24)": "infinite",
						"isDynamicFee(uint24)": "infinite",
						"isStaticFeeTooLarge(uint24)": "infinite"
					}
				},
				"methodIdentifiers": {
					"DYNAMIC_FEE_FLAG()": "f26ef49d",
					"HOOK_SWAP_FEE_FLAG()": "d11e7dee",
					"HOOK_WITHDRAW_FEE_FLAG()": "4f7deff7",
					"STATIC_FEE_MASK()": "c7a97b4e"
				}
			},
			"storageLayout": {
				"storage": [],
				"types": null
			},
			"userdoc": {
				"kind": "user",
				"methods": {},
				"version": 1
			}
		}
	}
}