{
	"data": {
		"bytecode": {
			"linkReferences": {},
			"object": "60a060405234801562000010575f80fd5b5060405162001344380380620013448339818101604052810190620000369190620004e8565b808073ffffffffffffffffffffffffffffffffffffffff1660808173ffffffffffffffffffffffffffffffffffffffff16815250506200007c306200008460201b60201c565b505062000544565b620000a58162000099620000a860201b60201c565b6200010360201b60201c565b50565b620000b262000423565b6040518061010001604052805f151581526020015f151581526020015f151581526020015f151581526020016001151581526020016001151581526020015f151581526020015f1515815250905090565b62000114826200026360201b60201c565b1515815f0151151514158062000142575062000136826200029b60201b60201c565b15158160200151151514155b806200016657506200015a82620002d360201b60201c565b15158160400151151514155b806200018a57506200017e826200030b60201b60201c565b15158160600151151514155b80620001ae5750620001a2826200034360201b60201c565b15158160800151151514155b80620001d25750620001c6826200037b60201b60201c565b15158160a00151151514155b80620001f65750620001ea82620003b360201b60201c565b15158160c00151151514155b806200021a57506200020e82620003eb60201b60201c565b15158160e00151151514155b156200025f57816040517fe65af6a000000000000000000000000000000000000000000000000000000000815260040162000256919062000529565b60405180910390fd5b5050565b5f807380000000000000000000000000000000000000008373ffffffffffffffffffffffffffffffffffffffff161614159050919050565b5f807340000000000000000000000000000000000000008373ffffffffffffffffffffffffffffffffffffffff161614159050919050565b5f807320000000000000000000000000000000000000008373ffffffffffffffffffffffffffffffffffffffff161614159050919050565b5f807310000000000000000000000000000000000000008373ffffffffffffffffffffffffffffffffffffffff161614159050919050565b5f807308000000000000000000000000000000000000008373ffffffffffffffffffffffffffffffffffffffff161614159050919050565b5f807304000000000000000000000000000000000000008373ffffffffffffffffffffffffffffffffffffffff161614159050919050565b5f807302000000000000000000000000000000000000008373ffffffffffffffffffffffffffffffffffffffff161614159050919050565b5f807301000000000000000000000000000000000000008373ffffffffffffffffffffffffffffffffffffffff161614159050919050565b6040518061010001604052805f151581526020015f151581526020015f151581526020015f151581526020015f151581526020015f151581526020015f151581526020015f151581525090565b5f80fd5b5f73ffffffffffffffffffffffffffffffffffffffff82169050919050565b5f6200049f8262000474565b9050919050565b5f620004b28262000493565b9050919050565b620004c481620004a6565b8114620004cf575f80fd5b50565b5f81519050620004e281620004b9565b92915050565b5f602082840312156200050057620004ff62000470565b5b5f6200050f84828501620004d2565b91505092915050565b620005238162000493565b82525050565b5f6020820190506200053e5f83018462000518565b92915050565b608051610de0620005645f395f818161030101526105a30152610de05ff3fe608060405234801561000f575f80fd5b50600436106100a7575f3560e01c8063612c39b71161006f578063612c39b71461019b5780636fe7e6eb146101b9578063a5aa370a146101e9578063b3f97f8014610219578063dc4c90d314610249578063dc98354e14610267576100a7565b80630dbe5dbd146100ab5780630e2059f5146100db5780633c74bf4c1461010b57806343c4407e1461013b5780634dbb99a61461016b575b5f80fd5b6100c560048036038101906100c091906106e7565b610297565b6040516100d29190610772565b60405180910390f35b6100f560048036038101906100f091906107be565b6102ca565b6040516101029190610772565b60405180910390f35b610125600480360381019061012091906108b8565b6102fd565b604051610132919061099f565b60405180910390f35b610155600480360381019061015091906109bf565b610449565b6040516101629190610772565b60405180910390f35b610185600480360381019061018091906109bf565b61047c565b6040516101929190610772565b60405180910390f35b6101a36104af565b6040516101b09190610ade565b60405180910390f35b6101d360048036038101906101ce9190610b58565b610508565b6040516101e09190610772565b60405180910390f35b61020360048036038101906101fe9190610bdb565b61053b565b6040516102109190610772565b60405180910390f35b610233600480360381019061022e9190610c41565b61056e565b6040516102409190610772565b60405180910390f35b6102516105a1565b60405161025e9190610ced565b60405180910390f35b610281600480360381019061027c9190610d06565b6105c5565b60405161028e9190610772565b60405180910390f35b5f6040517f0a85dc2900000000000000000000000000000000000000000000000000000000815260040160405180910390fd5b5f6040517f0a85dc2900000000000000000000000000000000000000000000000000000000815260040160405180910390fd5b60607f000000000000000000000000000000000000000000000000000000000000000073ffffffffffffffffffffffffffffffffffffffff163373ffffffffffffffffffffffffffffffffffffffff1614610384576040517fae18210a00000000000000000000000000000000000000000000000000000000815260040160405180910390fd5b5f803073ffffffffffffffffffffffffffffffffffffffff1685856040516103ad929190610d92565b5f604051808303815f865af19150503d805f81146103e6576040519150601f19603f3d011682016040523d82523d5f602084013e6103eb565b606091505b50915091508115610400578092505050610442565b5f81510361043a576040517fa40afa3800000000000000000000000000000000000000000000000000000000815260040160405180910390fd5b805160208201fd5b9392505050565b5f6040517f0a85dc2900000000000000000000000000000000000000000000000000000000815260040160405180910390fd5b5f6040517f0a85dc2900000000000000000000000000000000000000000000000000000000815260040160405180910390fd5b6104b76105f8565b6040518061010001604052805f151581526020015f151581526020015f151581526020015f151581526020016001151581526020016001151581526020015f151581526020015f1515815250905090565b5f6040517f0a85dc2900000000000000000000000000000000000000000000000000000000815260040160405180910390fd5b5f6040517f0a85dc2900000000000000000000000000000000000000000000000000000000815260040160405180910390fd5b5f6040517f0a85dc2900000000000000000000000000000000000000000000000000000000815260040160405180910390fd5b7f000000000000000000000000000000000000000000000000000000000000000081565b5f6040517f0a85dc2900000000000000000000000000000000000000000000000000000000815260040160405180910390fd5b6040518061010001604052805f151581526020015f151581526020015f151581526020015f151581526020015f151581526020015f151581526020015f151581526020015f151581525090565b5f80fd5b5f80fd5b5f73ffffffffffffffffffffffffffffffffffffffff82169050919050565b5f6106768261064d565b9050919050565b6106868161066c565b8114610690575f80fd5b50565b5f813590506106a18161067d565b92915050565b5f80fd5b5f60a082840312156106c0576106bf6106a7565b5b81905092915050565b5f606082840312156106de576106dd6106a7565b5b81905092915050565b5f805f61012084860312156106ff576106fe610645565b5b5f61070c86828701610693565b935050602061071d868287016106ab565b92505060c061072e868287016106c9565b9150509250925092565b5f7fffffffff0000000000000000000000000000000000000000000000000000000082169050919050565b61076c81610738565b82525050565b5f6020820190506107855f830184610763565b92915050565b5f819050919050565b61079d8161078b565b81146107a7575f80fd5b50565b5f813590506107b881610794565b92915050565b5f805f8061014085870312156107d7576107d6610645565b5b5f6107e487828801610693565b94505060206107f5878288016106ab565b93505060c0610806878288016106c9565b925050610120610818878288016107aa565b91505092959194509250565b5f819050919050565b61083681610824565b8114610840575f80fd5b50565b5f813590506108518161082d565b92915050565b5f80fd5b5f80fd5b5f80fd5b5f8083601f84011261087857610877610857565b5b8235905067ffffffffffffffff8111156108955761089461085b565b5b6020830191508360018202830111156108b1576108b061085f565b5b9250929050565b5f805f604084860312156108cf576108ce610645565b5b5f6108dc86828701610843565b935050602084013567ffffffffffffffff8111156108fd576108fc610649565b5b61090986828701610863565b92509250509250925092565b5f81519050919050565b5f82825260208201905092915050565b5f5b8381101561094c578082015181840152602081019050610931565b5f8484015250505050565b5f601f19601f8301169050919050565b5f61097182610915565b61097b818561091f565b935061098b81856020860161092f565b61099481610957565b840191505092915050565b5f6020820190508181035f8301526109b78184610967565b905092915050565b5f805f8061010085870312156109d8576109d7610645565b5b5f6109e587828801610693565b94505060206109f6878288016106ab565b93505060c0610a0787828801610843565b92505060e0610a1887828801610843565b91505092959194509250565b5f8115159050919050565b610a3881610a24565b82525050565b61010082015f820151610a535f850182610a2f565b506020820151610a666020850182610a2f565b506040820151610a796040850182610a2f565b506060820151610a8c6060850182610a2f565b506080820151610a9f6080850182610a2f565b5060a0820151610ab260a0850182610a2f565b5060c0820151610ac560c0850182610a2f565b5060e0820151610ad860e0850182610a2f565b50505050565b5f61010082019050610af25f830184610a3e565b92915050565b610b018161064d565b8114610b0b575f80fd5b50565b5f81359050610b1c81610af8565b92915050565b5f8160020b9050919050565b610b3781610b22565b8114610b41575f80fd5b50565b5f81359050610b5281610b2e565b92915050565b5f805f806101008587031215610b7157610b70610645565b5b5f610b7e87828801610693565b9450506020610b8f878288016106ab565b93505060c0610ba087828801610b0e565b92505060e0610bb187828801610b44565b91505092959194509250565b5f60608284031215610bd257610bd16106a7565b5b81905092915050565b5f805f806101408587031215610bf457610bf3610645565b5b5f610c0187828801610693565b9450506020610c12878288016106ab565b93505060c0610c2387828801610bbd565b925050610120610c35878288016107aa565b91505092959194509250565b5f805f6101208486031215610c5957610c58610645565b5b5f610c6686828701610693565b9350506020610c77868287016106ab565b92505060c0610c8886828701610bbd565b9150509250925092565b5f819050919050565b5f610cb5610cb0610cab8461064d565b610c92565b61064d565b9050919050565b5f610cc682610c9b565b9050919050565b5f610cd782610cbc565b9050919050565b610ce781610ccd565b82525050565b5f602082019050610d005f830184610cde565b92915050565b5f805f60e08486031215610d1d57610d1c610645565b5b5f610d2a86828701610693565b9350506020610d3b868287016106ab565b92505060c0610d4c86828701610b0e565b9150509250925092565b5f81905092915050565b828183375f83830152505050565b5f610d798385610d56565b9350610d86838584610d60565b82840190509392505050565b5f610d9e828486610d6e565b9150819050939250505056fea2646970667358221220ee453466ede3502f16fef4bfa0e4d4f4bd65e2442ad21418cc4b5bd192f1788464736f6c63430008150033",
			"opcodes": "PUSH1 0xA0 PUSH1 0x40 MSTORE CALLVALUE DUP1 ISZERO PUSH3 0x10 JUMPI PUSH0 DUP1 REVERT JUMPDEST POP PUSH1 0x40 MLOAD PUSH3 0x1344 CODESIZE SUB DUP1 PUSH3 0x1344 DUP4 CODECOPY DUP2 DUP2 ADD PUSH1 0x40 MSTORE DUP2 ADD SWAP1 PUSH3 0x36 SWAP2 SWAP1 PUSH3 0x4E8 JUMP JUMPDEST DUP1 DUP1 PUSH20 0xFFFFFFFFFFFFFFFFFFFFFFFFFFFFFFFFFFFFFFFF AND PUSH1 0x80 DUP2 PUSH20 0xFFFFFFFFFFFFFFFFFFFFFFFFFFFFFFFFFFFFFFFF AND DUP2 MSTORE POP POP PUSH3 0x7C ADDRESS PUSH3 0x84 PUSH1 0x20 SHL PUSH1 0x20 SHR JUMP JUMPDEST POP POP PUSH3 0x544 JUMP JUMPDEST PUSH3 0xA5 DUP2 PUSH3 0x99 PUSH3 0xA8 PUSH1 0x20 SHL PUSH1 0x20 SHR JUMP JUMPDEST PUSH3 0x103 PUSH1 0x20 SHL PUSH1 0x20 SHR JUMP JUMPDEST POP JUMP JUMPDEST PUSH3 0xB2 PUSH3 0x423 JUMP JUMPDEST PUSH1 0x40 MLOAD DUP1 PUSH2 0x100 ADD PUSH1 0x40 MSTORE DUP1 PUSH0 ISZERO ISZERO DUP2 MSTORE PUSH1 0x20 ADD PUSH0 ISZERO ISZERO DUP2 MSTORE PUSH1 0x20 ADD PUSH0 ISZERO ISZERO DUP2 MSTORE PUSH1 0x20 ADD PUSH0 ISZERO ISZERO DUP2 MSTORE PUSH1 0x20 ADD PUSH1 0x1 ISZERO ISZERO DUP2 MSTORE PUSH1 0x20 ADD PUSH1 0x1 ISZERO ISZERO DUP2 MSTORE PUSH1 0x20 ADD PUSH0 ISZERO ISZERO DUP2 MSTORE PUSH1 0x20 ADD PUSH0 ISZERO ISZERO DUP2 MSTORE POP SWAP1 POP SWAP1 JUMP JUMPDEST PUSH3 0x114 DUP3 PUSH3 0x263 PUSH1 0x20 SHL PUSH1 0x20 SHR JUMP JUMPDEST ISZERO ISZERO DUP2 PUSH0 ADD MLOAD ISZERO ISZERO EQ ISZERO DUP1 PUSH3 0x142 JUMPI POP PUSH3 0x136 DUP3 PUSH3 0x29B PUSH1 0x20 SHL PUSH1 0x20 SHR JUMP JUMPDEST ISZERO ISZERO DUP2 PUSH1 0x20 ADD MLOAD ISZERO ISZERO EQ ISZERO JUMPDEST DUP1 PUSH3 0x166 JUMPI POP PUSH3 0x15A DUP3 PUSH3 0x2D3 PUSH1 0x20 SHL PUSH1 0x20 SHR JUMP JUMPDEST ISZERO ISZERO DUP2 PUSH1 0x40 ADD MLOAD ISZERO ISZERO EQ ISZERO JUMPDEST DUP1 PUSH3 0x18A JUMPI POP PUSH3 0x17E DUP3 PUSH3 0x30B PUSH1 0x20 SHL PUSH1 0x20 SHR JUMP JUMPDEST ISZERO ISZERO DUP2 PUSH1 0x60 ADD MLOAD ISZERO ISZERO EQ ISZERO JUMPDEST DUP1 PUSH3 0x1AE JUMPI POP PUSH3 0x1A2 DUP3 PUSH3 0x343 PUSH1 0x20 SHL PUSH1 0x20 SHR JUMP JUMPDEST ISZERO ISZERO DUP2 PUSH1 0x80 ADD MLOAD ISZERO ISZERO EQ ISZERO JUMPDEST DUP1 PUSH3 0x1D2 JUMPI POP PUSH3 0x1C6 DUP3 PUSH3 0x37B PUSH1 0x20 SHL PUSH1 0x20 SHR JUMP JUMPDEST ISZERO ISZERO DUP2 PUSH1 0xA0 ADD MLOAD ISZERO ISZERO EQ ISZERO JUMPDEST DUP1 PUSH3 0x1F6 JUMPI POP PUSH3 0x1EA DUP3 PUSH3 0x3B3 PUSH1 0x20 SHL PUSH1 0x20 SHR JUMP JUMPDEST ISZERO ISZERO DUP2 PUSH1 0xC0 ADD MLOAD ISZERO ISZERO EQ ISZERO JUMPDEST DUP1 PUSH3 0x21A JUMPI POP PUSH3 0x20E DUP3 PUSH3 0x3EB PUSH1 0x20 SHL PUSH1 0x20 SHR JUMP JUMPDEST ISZERO ISZERO DUP2 PUSH1 0xE0 ADD MLOAD ISZERO ISZERO EQ ISZERO JUMPDEST ISZERO PUSH3 0x25F JUMPI DUP2 PUSH1 0x40 MLOAD PUSH32 0xE65AF6A000000000000000000000000000000000000000000000000000000000 DUP2 MSTORE PUSH1 0x4 ADD PUSH3 0x256 SWAP2 SWAP1 PUSH3 0x529 JUMP JUMPDEST PUSH1 0x40 MLOAD DUP1 SWAP2 SUB SWAP1 REVERT JUMPDEST POP POP JUMP JUMPDEST PUSH0 DUP1 PUSH20 0x8000000000000000000000000000000000000000 DUP4 PUSH20 0xFFFFFFFFFFFFFFFFFFFFFFFFFFFFFFFFFFFFFFFF AND AND EQ ISZERO SWAP1 POP SWAP2 SWAP1 POP JUMP JUMPDEST PUSH0 DUP1 PUSH20 0x4000000000000000000000000000000000000000 DUP4 PUSH20 0xFFFFFFFFFFFFFFFFFFFFFFFFFFFFFFFFFFFFFFFF AND AND EQ ISZERO SWAP1 POP SWAP2 SWAP1 POP JUMP JUMPDEST PUSH0 DUP1 PUSH20 0x2000000000000000000000000000000000000000 DUP4 PUSH20 0xFFFFFFFFFFFFFFFFFFFFFFFFFFFFFFFFFFFFFFFF AND AND EQ ISZERO SWAP1 POP SWAP2 SWAP1 POP JUMP JUMPDEST PUSH0 DUP1 PUSH20 0x1000000000000000000000000000000000000000 DUP4 PUSH20 0xFFFFFFFFFFFFFFFFFFFFFFFFFFFFFFFFFFFFFFFF AND AND EQ ISZERO SWAP1 POP SWAP2 SWAP1 POP JUMP JUMPDEST PUSH0 DUP1 PUSH20 0x800000000000000000000000000000000000000 DUP4 PUSH20 0xFFFFFFFFFFFFFFFFFFFFFFFFFFFFFFFFFFFFFFFF AND AND EQ ISZERO SWAP1 POP SWAP2 SWAP1 POP JUMP JUMPDEST PUSH0 DUP1 PUSH20 0x400000000000000000000000000000000000000 DUP4 PUSH20 0xFFFFFFFFFFFFFFFFFFFFFFFFFFFFFFFFFFFFFFFF AND AND EQ ISZERO SWAP1 POP SWAP2 SWAP1 POP JUMP JUMPDEST PUSH0 DUP1 PUSH20 0x200000000000000000000000000000000000000 DUP4 PUSH20 0xFFFFFFFFFFFFFFFFFFFFFFFFFFFFFFFFFFFFFFFF AND AND EQ ISZERO SWAP1 POP SWAP2 SWAP1 POP JUMP JUMPDEST PUSH0 DUP1 PUSH20 0x100000000000000000000000000000000000000 DUP4 PUSH20 0xFFFFFFFFFFFFFFFFFFFFFFFFFFFFFFFFFFFFFFFF AND AND EQ ISZERO SWAP1 POP SWAP2 SWAP1 POP JUMP JUMPDEST PUSH1 0x40 MLOAD DUP1 PUSH2 0x100 ADD PUSH1 0x40 MSTORE DUP1 PUSH0 ISZERO ISZERO DUP2 MSTORE PUSH1 0x20 ADD PUSH0 ISZERO ISZERO DUP2 MSTORE PUSH1 0x20 ADD PUSH0 ISZERO ISZERO DUP2 MSTORE PUSH1 0x20 ADD PUSH0 ISZERO ISZERO DUP2 MSTORE PUSH1 0x20 ADD PUSH0 ISZERO ISZERO DUP2 MSTORE PUSH1 0x20 ADD PUSH0 ISZERO ISZERO DUP2 MSTORE PUSH1 0x20 ADD PUSH0 ISZERO ISZERO DUP2 MSTORE PUSH1 0x20 ADD PUSH0 ISZERO ISZERO DUP2 MSTORE POP SWAP1 JUMP JUMPDEST PUSH0 DUP1 REVERT JUMPDEST PUSH0 PUSH20 0xFFFFFFFFFFFFFFFFFFFFFFFFFFFFFFFFFFFFFFFF DUP3 AND SWAP1 POP SWAP2 SWAP1 POP JUMP JUMPDEST PUSH0 PUSH3 0x49F DUP3 PUSH3 0x474 JUMP JUMPDEST SWAP1 POP SWAP2 SWAP1 POP JUMP JUMPDEST PUSH0 PUSH3 0x4B2 DUP3 PUSH3 0x493 JUMP JUMPDEST SWAP1 POP SWAP2 SWAP1 POP JUMP JUMPDEST PUSH3 0x4C4 DUP2 PUSH3 0x4A6 JUMP JUMPDEST DUP2 EQ PUSH3 0x4CF JUMPI PUSH0 DUP1 REVERT JUMPDEST POP JUMP JUMPDEST PUSH0 DUP2 MLOAD SWAP1 POP PUSH3 0x4E2 DUP2 PUSH3 0x4B9 JUMP JUMPDEST SWAP3 SWAP2 POP POP JUMP JUMPDEST PUSH0 PUSH1 0x20 DUP3 DUP5 SUB SLT ISZERO PUSH3 0x500 JUMPI PUSH3 0x4FF PUSH3 0x470 JUMP JUMPDEST JUMPDEST PUSH0 PUSH3 0x50F DUP5 DUP3 DUP6 ADD PUSH3 0x4D2 JUMP JUMPDEST SWAP2 POP POP SWAP3 SWAP2 POP POP JUMP JUMPDEST PUSH3 0x523 DUP2 PUSH3 0x493 JUMP JUMPDEST DUP3 MSTORE POP POP JUMP JUMPDEST PUSH0 PUSH1 0x20 DUP3 ADD SWAP1 POP PUSH3 0x53E PUSH0 DUP4 ADD DUP5 PUSH3 0x518 JUMP JUMPDEST SWAP3 SWAP2 POP POP JUMP JUMPDEST PUSH1 0x80 MLOAD PUSH2 0xDE0 PUSH3 0x564 PUSH0 CODECOPY PUSH0 DUP2 DUP2 PUSH2 0x301 ADD MSTORE PUSH2 0x5A3 ADD MSTORE PUSH2 0xDE0 PUSH0 RETURN INVALID PUSH1 0x80 PUSH1 0x40 MSTORE CALLVALUE DUP1 ISZERO PUSH2 0xF JUMPI PUSH0 DUP1 REVERT JUMPDEST POP PUSH1 0x4 CALLDATASIZE LT PUSH2 0xA7 JUMPI PUSH0 CALLDATALOAD PUSH1 0xE0 SHR DUP1 PUSH4 0x612C39B7 GT PUSH2 0x6F JUMPI DUP1 PUSH4 0x612C39B7 EQ PUSH2 0x19B JUMPI DUP1 PUSH4 0x6FE7E6EB EQ PUSH2 0x1B9 JUMPI DUP1 PUSH4 0xA5AA370A EQ PUSH2 0x1E9 JUMPI DUP1 PUSH4 0xB3F97F80 EQ PUSH2 0x219 JUMPI DUP1 PUSH4 0xDC4C90D3 EQ PUSH2 0x249 JUMPI DUP1 PUSH4 0xDC98354E EQ PUSH2 0x267 JUMPI PUSH2 0xA7 JUMP JUMPDEST DUP1 PUSH4 0xDBE5DBD EQ PUSH2 0xAB JUMPI DUP1 PUSH4 0xE2059F5 EQ PUSH2 0xDB JUMPI DUP1 PUSH4 0x3C74BF4C EQ PUSH2 0x10B JUMPI DUP1 PUSH4 0x43C4407E EQ PUSH2 0x13B JUMPI DUP1 PUSH4 0x4DBB99A6 EQ PUSH2 0x16B JUMPI JUMPDEST PUSH0 DUP1 REVERT JUMPDEST PUSH2 0xC5 PUSH1 0x4 DUP1 CALLDATASIZE SUB DUP2 ADD SWAP1 PUSH2 0xC0 SWAP2 SWAP1 PUSH2 0x6E7 JUMP JUMPDEST PUSH2 0x297 JUMP JUMPDEST PUSH1 0x40 MLOAD PUSH2 0xD2 SWAP2 SWAP1 PUSH2 0x772 JUMP JUMPDEST PUSH1 0x40 MLOAD DUP1 SWAP2 SUB SWAP1 RETURN JUMPDEST PUSH2 0xF5 PUSH1 0x4 DUP1 CALLDATASIZE SUB DUP2 ADD SWAP1 PUSH2 0xF0 SWAP2 SWAP1 PUSH2 0x7BE JUMP JUMPDEST PUSH2 0x2CA JUMP JUMPDEST PUSH1 0x40 MLOAD PUSH2 0x102 SWAP2 SWAP1 PUSH2 0x772 JUMP JUMPDEST PUSH1 0x40 MLOAD DUP1 SWAP2 SUB SWAP1 RETURN JUMPDEST PUSH2 0x125 PUSH1 0x4 DUP1 CALLDATASIZE SUB DUP2 ADD SWAP1 PUSH2 0x120 SWAP2 SWAP1 PUSH2 0x8B8 JUMP JUMPDEST PUSH2 0x2FD JUMP JUMPDEST PUSH1 0x40 MLOAD PUSH2 0x132 SWAP2 SWAP1 PUSH2 0x99F JUMP JUMPDEST PUSH1 0x40 MLOAD DUP1 SWAP2 SUB SWAP1 RETURN JUMPDEST PUSH2 0x155 PUSH1 0x4 DUP1 CALLDATASIZE SUB DUP2 ADD SWAP1 PUSH2 0x150 SWAP2 SWAP1 PUSH2 0x9BF JUMP JUMPDEST PUSH2 0x449 JUMP JUMPDEST PUSH1 0x40 MLOAD PUSH2 0x162 SWAP2 SWAP1 PUSH2 0x772 JUMP JUMPDEST PUSH1 0x40 MLOAD DUP1 SWAP2 SUB SWAP1 RETURN JUMPDEST PUSH2 0x185 PUSH1 0x4 DUP1 CALLDATASIZE SUB DUP2 ADD SWAP1 PUSH2 0x180 SWAP2 SWAP1 PUSH2 0x9BF JUMP JUMPDEST PUSH2 0x47C JUMP JUMPDEST PUSH1 0x40 MLOAD PUSH2 0x192 SWAP2 SWAP1 PUSH2 0x772 JUMP JUMPDEST PUSH1 0x40 MLOAD DUP1 SWAP2 SUB SWAP1 RETURN JUMPDEST PUSH2 0x1A3 PUSH2 0x4AF JUMP JUMPDEST PUSH1 0x40 MLOAD PUSH2 0x1B0 SWAP2 SWAP1 PUSH2 0xADE JUMP JUMPDEST PUSH1 0x40 MLOAD DUP1 SWAP2 SUB SWAP1 RETURN JUMPDEST PUSH2 0x1D3 PUSH1 0x4 DUP1 CALLDATASIZE SUB DUP2 ADD SWAP1 PUSH2 0x1CE SWAP2 SWAP1 PUSH2 0xB58 JUMP JUMPDEST PUSH2 0x508 JUMP JUMPDEST PUSH1 0x40 MLOAD PUSH2 0x1E0 SWAP2 SWAP1 PUSH2 0x772 JUMP JUMPDEST PUSH1 0x40 MLOAD DUP1 SWAP2 SUB SWAP1 RETURN JUMPDEST PUSH2 0x203 PUSH1 0x4 DUP1 CALLDATASIZE SUB DUP2 ADD SWAP1 PUSH2 0x1FE SWAP2 SWAP1 PUSH2 0xBDB JUMP JUMPDEST PUSH2 0x53B JUMP JUMPDEST PUSH1 0x40 MLOAD PUSH2 0x210 SWAP2 SWAP1 PUSH2 0x772 JUMP JUMPDEST PUSH1 0x40 MLOAD DUP1 SWAP2 SUB SWAP1 RETURN JUMPDEST PUSH2 0x233 PUSH1 0x4 DUP1 CALLDATASIZE SUB DUP2 ADD SWAP1 PUSH2 0x22E SWAP2 SWAP1 PUSH2 0xC41 JUMP JUMPDEST PUSH2 0x56E JUMP JUMPDEST PUSH1 0x40 MLOAD PUSH2 0x240 SWAP2 SWAP1 PUSH2 0x772 JUMP JUMPDEST PUSH1 0x40 MLOAD DUP1 SWAP2 SUB SWAP1 RETURN JUMPDEST PUSH2 0x251 PUSH2 0x5A1 JUMP JUMPDEST PUSH1 0x40 MLOAD PUSH2 0x25E SWAP2 SWAP1 PUSH2 0xCED JUMP JUMPDEST PUSH1 0x40 MLOAD DUP1 SWAP2 SUB SWAP1 RETURN JUMPDEST PUSH2 0x281 PUSH1 0x4 DUP1 CALLDATASIZE SUB DUP2 ADD SWAP1 PUSH2 0x27C SWAP2 SWAP1 PUSH2 0xD06 JUMP JUMPDEST PUSH2 0x5C5 JUMP JUMPDEST PUSH1 0x40 MLOAD PUSH2 0x28E SWAP2 SWAP1 PUSH2 0x772 JUMP JUMPDEST PUSH1 0x40 MLOAD DUP1 SWAP2 SUB SWAP1 RETURN JUMPDEST PUSH0 PUSH1 0x40 MLOAD PUSH32 0xA85DC2900000000000000000000000000000000000000000000000000000000 DUP2 MSTORE PUSH1 0x4 ADD PUSH1 0x40 MLOAD DUP1 SWAP2 SUB SWAP1 REVERT JUMPDEST PUSH0 PUSH1 0x40 MLOAD PUSH32 0xA85DC2900000000000000000000000000000000000000000000000000000000 DUP2 MSTORE PUSH1 0x4 ADD PUSH1 0x40 MLOAD DUP1 SWAP2 SUB SWAP1 REVERT JUMPDEST PUSH1 0x60 PUSH32 0x0 PUSH20 0xFFFFFFFFFFFFFFFFFFFFFFFFFFFFFFFFFFFFFFFF AND CALLER PUSH20 0xFFFFFFFFFFFFFFFFFFFFFFFFFFFFFFFFFFFFFFFF AND EQ PUSH2 0x384 JUMPI PUSH1 0x40 MLOAD PUSH32 0xAE18210A00000000000000000000000000000000000000000000000000000000 DUP2 MSTORE PUSH1 0x4 ADD PUSH1 0x40 MLOAD DUP1 SWAP2 SUB SWAP1 REVERT JUMPDEST PUSH0 DUP1 ADDRESS PUSH20 0xFFFFFFFFFFFFFFFFFFFFFFFFFFFFFFFFFFFFFFFF AND DUP6 DUP6 PUSH1 0x40 MLOAD PUSH2 0x3AD SWAP3 SWAP2 SWAP1 PUSH2 0xD92 JUMP JUMPDEST PUSH0 PUSH1 0x40 MLOAD DUP1 DUP4 SUB DUP2 PUSH0 DUP7 GAS CALL SWAP2 POP POP RETURNDATASIZE DUP1 PUSH0 DUP2 EQ PUSH2 0x3E6 JUMPI PUSH1 0x40 MLOAD SWAP2 POP PUSH1 0x1F NOT PUSH1 0x3F RETURNDATASIZE ADD AND DUP3 ADD PUSH1 0x40 MSTORE RETURNDATASIZE DUP3 MSTORE RETURNDATASIZE PUSH0 PUSH1 0x20 DUP5 ADD RETURNDATACOPY PUSH2 0x3EB JUMP JUMPDEST PUSH1 0x60 SWAP2 POP JUMPDEST POP SWAP2 POP SWAP2 POP DUP2 ISZERO PUSH2 0x400 JUMPI DUP1 SWAP3 POP POP POP PUSH2 0x442 JUMP JUMPDEST PUSH0 DUP2 MLOAD SUB PUSH2 0x43A JUMPI PUSH1 0x40 MLOAD PUSH32 0xA40AFA3800000000000000000000000000000000000000000000000000000000 DUP2 MSTORE PUSH1 0x4 ADD PUSH1 0x40 MLOAD DUP1 SWAP2 SUB SWAP1 REVERT JUMPDEST DUP1 MLOAD PUSH1 0x20 DUP3 ADD REVERT JUMPDEST SWAP4 SWAP3 POP POP POP JUMP JUMPDEST PUSH0 PUSH1 0x40 MLOAD PUSH32 0xA85DC2900000000000000000000000000000000000000000000000000000000 DUP2 MSTORE PUSH1 0x4 ADD PUSH1 0x40 MLOAD DUP1 SWAP2 SUB SWAP1 REVERT JUMPDEST PUSH0 PUSH1 0x40 MLOAD PUSH32 0xA85DC2900000000000000000000000000000000000000000000000000000000 DUP2 MSTORE PUSH1 0x4 ADD PUSH1 0x40 MLOAD DUP1 SWAP2 SUB SWAP1 REVERT JUMPDEST PUSH2 0x4B7 PUSH2 0x5F8 JUMP JUMPDEST PUSH1 0x40 MLOAD DUP1 PUSH2 0x100 ADD PUSH1 0x40 MSTORE DUP1 PUSH0 ISZERO ISZERO DUP2 MSTORE PUSH1 0x20 ADD PUSH0 ISZERO ISZERO DUP2 MSTORE PUSH1 0x20 ADD PUSH0 ISZERO ISZERO DUP2 MSTORE PUSH1 0x20 ADD PUSH0 ISZERO ISZERO DUP2 MSTORE PUSH1 0x20 ADD PUSH1 0x1 ISZERO ISZERO DUP2 MSTORE PUSH1 0x20 ADD PUSH1 0x1 ISZERO ISZERO DUP2 MSTORE PUSH1 0x20 ADD PUSH0 ISZERO ISZERO DUP2 MSTORE PUSH1 0x20 ADD PUSH0 ISZERO ISZERO DUP2 MSTORE POP SWAP1 POP SWAP1 JUMP JUMPDEST PUSH0 PUSH1 0x40 MLOAD PUSH32 0xA85DC2900000000000000000000000000000000000000000000000000000000 DUP2 MSTORE PUSH1 0x4 ADD PUSH1 0x40 MLOAD DUP1 SWAP2 SUB SWAP1 REVERT JUMPDEST PUSH0 PUSH1 0x40 MLOAD PUSH32 0xA85DC2900000000000000000000000000000000000000000000000000000000 DUP2 MSTORE PUSH1 0x4 ADD PUSH1 0x40 MLOAD DUP1 SWAP2 SUB SWAP1 REVERT JUMPDEST PUSH0 PUSH1 0x40 MLOAD PUSH32 0xA85DC2900000000000000000000000000000000000000000000000000000000 DUP2 MSTORE PUSH1 0x4 ADD PUSH1 0x40 MLOAD DUP1 SWAP2 SUB SWAP1 REVERT JUMPDEST PUSH32 0x0 DUP2 JUMP JUMPDEST PUSH0 PUSH1 0x40 MLOAD PUSH32 0xA85DC2900000000000000000000000000000000000000000000000000000000 DUP2 MSTORE PUSH1 0x4 ADD PUSH1 0x40 MLOAD DUP1 SWAP2 SUB SWAP1 REVERT JUMPDEST PUSH1 0x40 MLOAD DUP1 PUSH2 0x100 ADD PUSH1 0x40 MSTORE DUP1 PUSH0 ISZERO ISZERO DUP2 MSTORE PUSH1 0x20 ADD PUSH0 ISZERO ISZERO DUP2 MSTORE PUSH1 0x20 ADD PUSH0 ISZERO ISZERO DUP2 MSTORE PUSH1 0x20 ADD PUSH0 ISZERO ISZERO DUP2 MSTORE PUSH1 0x20 ADD PUSH0 ISZERO ISZERO DUP2 MSTORE PUSH1 0x20 ADD PUSH0 ISZERO ISZERO DUP2 MSTORE PUSH1 0x20 ADD PUSH0 ISZERO ISZERO DUP2 MSTORE PUSH1 0x20 ADD PUSH0 ISZERO ISZERO DUP2 MSTORE POP SWAP1 JUMP JUMPDEST PUSH0 DUP1 REVERT JUMPDEST PUSH0 DUP1 REVERT JUMPDEST PUSH0 PUSH20 0xFFFFFFFFFFFFFFFFFFFFFFFFFFFFFFFFFFFFFFFF DUP3 AND SWAP1 POP SWAP2 SWAP1 POP JUMP JUMPDEST PUSH0 PUSH2 0x676 DUP3 PUSH2 0x64D JUMP JUMPDEST SWAP1 POP SWAP2 SWAP1 POP JUMP JUMPDEST PUSH2 0x686 DUP2 PUSH2 0x66C JUMP JUMPDEST DUP2 EQ PUSH2 0x690 JUMPI PUSH0 DUP1 REVERT JUMPDEST POP JUMP JUMPDEST PUSH0 DUP2 CALLDATALOAD SWAP1 POP PUSH2 0x6A1 DUP2 PUSH2 0x67D JUMP JUMPDEST SWAP3 SWAP2 POP POP JUMP JUMPDEST PUSH0 DUP1 REVERT JUMPDEST PUSH0 PUSH1 0xA0 DUP3 DUP5 SUB SLT ISZERO PUSH2 0x6C0 JUMPI PUSH2 0x6BF PUSH2 0x6A7 JUMP JUMPDEST JUMPDEST DUP2 SWAP1 POP SWAP3 SWAP2 POP POP JUMP JUMPDEST PUSH0 PUSH1 0x60 DUP3 DUP5 SUB SLT ISZERO PUSH2 0x6DE JUMPI PUSH2 0x6DD PUSH2 0x6A7 JUMP JUMPDEST JUMPDEST DUP2 SWAP1 POP SWAP3 SWAP2 POP POP JUMP JUMPDEST PUSH0 DUP1 PUSH0 PUSH2 0x120 DUP5 DUP7 SUB SLT ISZERO PUSH2 0x6FF JUMPI PUSH2 0x6FE PUSH2 0x645 JUMP JUMPDEST JUMPDEST PUSH0 PUSH2 0x70C DUP7 DUP3 DUP8 ADD PUSH2 0x693 JUMP JUMPDEST SWAP4 POP POP PUSH1 0x20 PUSH2 0x71D DUP7 DUP3 DUP8 ADD PUSH2 0x6AB JUMP JUMPDEST SWAP3 POP POP PUSH1 0xC0 PUSH2 0x72E DUP7 DUP3 DUP8 ADD PUSH2 0x6C9 JUMP JUMPDEST SWAP2 POP POP SWAP3 POP SWAP3 POP SWAP3 JUMP JUMPDEST PUSH0 PUSH32 0xFFFFFFFF00000000000000000000000000000000000000000000000000000000 DUP3 AND SWAP1 POP SWAP2 SWAP1 POP JUMP JUMPDEST PUSH2 0x76C DUP2 PUSH2 0x738 JUMP JUMPDEST DUP3 MSTORE POP POP JUMP JUMPDEST PUSH0 PUSH1 0x20 DUP3 ADD SWAP1 POP PUSH2 0x785 PUSH0 DUP4 ADD DUP5 PUSH2 0x763 JUMP JUMPDEST SWAP3 SWAP2 POP POP JUMP JUMPDEST PUSH0 DUP2 SWAP1 POP SWAP2 SWAP1 POP JUMP JUMPDEST PUSH2 0x79D DUP2 PUSH2 0x78B JUMP JUMPDEST DUP2 EQ PUSH2 0x7A7 JUMPI PUSH0 DUP1 REVERT JUMPDEST POP JUMP JUMPDEST PUSH0 DUP2 CALLDATALOAD SWAP1 POP PUSH2 0x7B8 DUP2 PUSH2 0x794 JUMP JUMPDEST SWAP3 SWAP2 POP POP JUMP JUMPDEST PUSH0 DUP1 PUSH0 DUP1 PUSH2 0x140 DUP6 DUP8 SUB SLT ISZERO PUSH2 0x7D7 JUMPI PUSH2 0x7D6 PUSH2 0x645 JUMP JUMPDEST JUMPDEST PUSH0 PUSH2 0x7E4 DUP8 DUP3 DUP9 ADD PUSH2 0x693 JUMP JUMPDEST SWAP5 POP POP PUSH1 0x20 PUSH2 0x7F5 DUP8 DUP3 DUP9 ADD PUSH2 0x6AB JUMP JUMPDEST SWAP4 POP POP PUSH1 0xC0 PUSH2 0x806 DUP8 DUP3 DUP9 ADD PUSH2 0x6C9 JUMP JUMPDEST SWAP3 POP POP PUSH2 0x120 PUSH2 0x818 DUP8 DUP3 DUP9 ADD PUSH2 0x7AA JUMP JUMPDEST SWAP2 POP POP SWAP3 SWAP6 SWAP2 SWAP5 POP SWAP3 POP JUMP JUMPDEST PUSH0 DUP2 SWAP1 POP SWAP2 SWAP1 POP JUMP JUMPDEST PUSH2 0x836 DUP2 PUSH2 0x824 JUMP JUMPDEST DUP2 EQ PUSH2 0x840 JUMPI PUSH0 DUP1 REVERT JUMPDEST POP JUMP JUMPDEST PUSH0 DUP2 CALLDATALOAD SWAP1 POP PUSH2 0x851 DUP2 PUSH2 0x82D JUMP JUMPDEST SWAP3 SWAP2 POP POP JUMP JUMPDEST PUSH0 DUP1 REVERT JUMPDEST PUSH0 DUP1 REVERT JUMPDEST PUSH0 DUP1 REVERT JUMPDEST PUSH0 DUP1 DUP4 PUSH1 0x1F DUP5 ADD SLT PUSH2 0x878 JUMPI PUSH2 0x877 PUSH2 0x857 JUMP JUMPDEST JUMPDEST DUP3 CALLDATALOAD SWAP1 POP PUSH8 0xFFFFFFFFFFFFFFFF DUP2 GT ISZERO PUSH2 0x895 JUMPI PUSH2 0x894 PUSH2 0x85B JUMP JUMPDEST JUMPDEST PUSH1 0x20 DUP4 ADD SWAP2 POP DUP4 PUSH1 0x1 DUP3 MUL DUP4 ADD GT ISZERO PUSH2 0x8B1 JUMPI PUSH2 0x8B0 PUSH2 0x85F JUMP JUMPDEST JUMPDEST SWAP3 POP SWAP3 SWAP1 POP JUMP JUMPDEST PUSH0 DUP1 PUSH0 PUSH1 0x40 DUP5 DUP7 SUB SLT ISZERO PUSH2 0x8CF JUMPI PUSH2 0x8CE PUSH2 0x645 JUMP JUMPDEST JUMPDEST PUSH0 PUSH2 0x8DC DUP7 DUP3 DUP8 ADD PUSH2 0x843 JUMP JUMPDEST SWAP4 POP POP PUSH1 0x20 DUP5 ADD CALLDATALOAD PUSH8 0xFFFFFFFFFFFFFFFF DUP2 GT ISZERO PUSH2 0x8FD JUMPI PUSH2 0x8FC PUSH2 0x649 JUMP JUMPDEST JUMPDEST PUSH2 0x909 DUP7 DUP3 DUP8 ADD PUSH2 0x863 JUMP JUMPDEST SWAP3 POP SWAP3 POP POP SWAP3 POP SWAP3 POP SWAP3 JUMP JUMPDEST PUSH0 DUP2 MLOAD SWAP1 POP SWAP2 SWAP1 POP JUMP JUMPDEST PUSH0 DUP3 DUP3 MSTORE PUSH1 0x20 DUP3 ADD SWAP1 POP SWAP3 SWAP2 POP POP JUMP JUMPDEST PUSH0 JUMPDEST DUP4 DUP2 LT ISZERO PUSH2 0x94C JUMPI DUP1 DUP3 ADD MLOAD DUP2 DUP5 ADD MSTORE PUSH1 0x20 DUP2 ADD SWAP1 POP PUSH2 0x931 JUMP JUMPDEST PUSH0 DUP5 DUP5 ADD MSTORE POP POP POP POP JUMP JUMPDEST PUSH0 PUSH1 0x1F NOT PUSH1 0x1F DUP4 ADD AND SWAP1 POP SWAP2 SWAP1 POP JUMP JUMPDEST PUSH0 PUSH2 0x971 DUP3 PUSH2 0x915 JUMP JUMPDEST PUSH2 0x97B DUP2 DUP6 PUSH2 0x91F JUMP JUMPDEST SWAP4 POP PUSH2 0x98B DUP2 DUP6 PUSH1 0x20 DUP7 ADD PUSH2 0x92F JUMP JUMPDEST PUSH2 0x994 DUP2 PUSH2 0x957 JUMP JUMPDEST DUP5 ADD SWAP2 POP POP SWAP3 SWAP2 POP POP JUMP JUMPDEST PUSH0 PUSH1 0x20 DUP3 ADD SWAP1 POP DUP2 DUP2 SUB PUSH0 DUP4 ADD MSTORE PUSH2 0x9B7 DUP2 DUP5 PUSH2 0x967 JUMP JUMPDEST SWAP1 POP SWAP3 SWAP2 POP POP JUMP JUMPDEST PUSH0 DUP1 PUSH0 DUP1 PUSH2 0x100 DUP6 DUP8 SUB SLT ISZERO PUSH2 0x9D8 JUMPI PUSH2 0x9D7 PUSH2 0x645 JUMP JUMPDEST JUMPDEST PUSH0 PUSH2 0x9E5 DUP8 DUP3 DUP9 ADD PUSH2 0x693 JUMP JUMPDEST SWAP5 POP POP PUSH1 0x20 PUSH2 0x9F6 DUP8 DUP3 DUP9 ADD PUSH2 0x6AB JUMP JUMPDEST SWAP4 POP POP PUSH1 0xC0 PUSH2 0xA07 DUP8 DUP3 DUP9 ADD PUSH2 0x843 JUMP JUMPDEST SWAP3 POP POP PUSH1 0xE0 PUSH2 0xA18 DUP8 DUP3 DUP9 ADD PUSH2 0x843 JUMP JUMPDEST SWAP2 POP POP SWAP3 SWAP6 SWAP2 SWAP5 POP SWAP3 POP JUMP JUMPDEST PUSH0 DUP2 ISZERO ISZERO SWAP1 POP SWAP2 SWAP1 POP JUMP JUMPDEST PUSH2 0xA38 DUP2 PUSH2 0xA24 JUMP JUMPDEST DUP3 MSTORE POP POP JUMP JUMPDEST PUSH2 0x100 DUP3 ADD PUSH0 DUP3 ADD MLOAD PUSH2 0xA53 PUSH0 DUP6 ADD DUP3 PUSH2 0xA2F JUMP JUMPDEST POP PUSH1 0x20 DUP3 ADD MLOAD PUSH2 0xA66 PUSH1 0x20 DUP6 ADD DUP3 PUSH2 0xA2F JUMP JUMPDEST POP PUSH1 0x40 DUP3 ADD MLOAD PUSH2 0xA79 PUSH1 0x40 DUP6 ADD DUP3 PUSH2 0xA2F JUMP JUMPDEST POP PUSH1 0x60 DUP3 ADD MLOAD PUSH2 0xA8C PUSH1 0x60 DUP6 ADD DUP3 PUSH2 0xA2F JUMP JUMPDEST POP PUSH1 0x80 DUP3 ADD MLOAD PUSH2 0xA9F PUSH1 0x80 DUP6 ADD DUP3 PUSH2 0xA2F JUMP JUMPDEST POP PUSH1 0xA0 DUP3 ADD MLOAD PUSH2 0xAB2 PUSH1 0xA0 DUP6 ADD DUP3 PUSH2 0xA2F JUMP JUMPDEST POP PUSH1 0xC0 DUP3 ADD MLOAD PUSH2 0xAC5 PUSH1 0xC0 DUP6 ADD DUP3 PUSH2 0xA2F JUMP JUMPDEST POP PUSH1 0xE0 DUP3 ADD MLOAD PUSH2 0xAD8 PUSH1 0xE0 DUP6 ADD DUP3 PUSH2 0xA2F JUMP JUMPDEST POP POP POP POP JUMP JUMPDEST PUSH0 PUSH2 0x100 DUP3 ADD SWAP1 POP PUSH2 0xAF2 PUSH0 DUP4 ADD DUP5 PUSH2 0xA3E JUMP JUMPDEST SWAP3 SWAP2 POP POP JUMP JUMPDEST PUSH2 0xB01 DUP2 PUSH2 0x64D JUMP JUMPDEST DUP2 EQ PUSH2 0xB0B JUMPI PUSH0 DUP1 REVERT JUMPDEST POP JUMP JUMPDEST PUSH0 DUP2 CALLDATALOAD SWAP1 POP PUSH2 0xB1C DUP2 PUSH2 0xAF8 JUMP JUMPDEST SWAP3 SWAP2 POP POP JUMP JUMPDEST PUSH0 DUP2 PUSH1 0x2 SIGNEXTEND SWAP1 POP SWAP2 SWAP1 POP JUMP JUMPDEST PUSH2 0xB37 DUP2 PUSH2 0xB22 JUMP JUMPDEST DUP2 EQ PUSH2 0xB41 JUMPI PUSH0 DUP1 REVERT JUMPDEST POP JUMP JUMPDEST PUSH0 DUP2 CALLDATALOAD SWAP1 POP PUSH2 0xB52 DUP2 PUSH2 0xB2E JUMP JUMPDEST SWAP3 SWAP2 POP POP JUMP JUMPDEST PUSH0 DUP1 PUSH0 DUP1 PUSH2 0x100 DUP6 DUP8 SUB SLT ISZERO PUSH2 0xB71 JUMPI PUSH2 0xB70 PUSH2 0x645 JUMP JUMPDEST JUMPDEST PUSH0 PUSH2 0xB7E DUP8 DUP3 DUP9 ADD PUSH2 0x693 JUMP JUMPDEST SWAP5 POP POP PUSH1 0x20 PUSH2 0xB8F DUP8 DUP3 DUP9 ADD PUSH2 0x6AB JUMP JUMPDEST SWAP4 POP POP PUSH1 0xC0 PUSH2 0xBA0 DUP8 DUP3 DUP9 ADD PUSH2 0xB0E JUMP JUMPDEST SWAP3 POP POP PUSH1 0xE0 PUSH2 0xBB1 DUP8 DUP3 DUP9 ADD PUSH2 0xB44 JUMP JUMPDEST SWAP2 POP POP SWAP3 SWAP6 SWAP2 SWAP5 POP SWAP3 POP JUMP JUMPDEST PUSH0 PUSH1 0x60 DUP3 DUP5 SUB SLT ISZERO PUSH2 0xBD2 JUMPI PUSH2 0xBD1 PUSH2 0x6A7 JUMP JUMPDEST JUMPDEST DUP2 SWAP1 POP SWAP3 SWAP2 POP POP JUMP JUMPDEST PUSH0 DUP1 PUSH0 DUP1 PUSH2 0x140 DUP6 DUP8 SUB SLT ISZERO PUSH2 0xBF4 JUMPI PUSH2 0xBF3 PUSH2 0x645 JUMP JUMPDEST JUMPDEST PUSH0 PUSH2 0xC01 DUP8 DUP3 DUP9 ADD PUSH2 0x693 JUMP JUMPDEST SWAP5 POP POP PUSH1 0x20 PUSH2 0xC12 DUP8 DUP3 DUP9 ADD PUSH2 0x6AB JUMP JUMPDEST SWAP4 POP POP PUSH1 0xC0 PUSH2 0xC23 DUP8 DUP3 DUP9 ADD PUSH2 0xBBD JUMP JUMPDEST SWAP3 POP POP PUSH2 0x120 PUSH2 0xC35 DUP8 DUP3 DUP9 ADD PUSH2 0x7AA JUMP JUMPDEST SWAP2 POP POP SWAP3 SWAP6 SWAP2 SWAP5 POP SWAP3 POP JUMP JUMPDEST PUSH0 DUP1 PUSH0 PUSH2 0x120 DUP5 DUP7 SUB SLT ISZERO PUSH2 0xC59 JUMPI PUSH2 0xC58 PUSH2 0x645 JUMP JUMPDEST JUMPDEST PUSH0 PUSH2 0xC66 DUP7 DUP3 DUP8 ADD PUSH2 0x693 JUMP JUMPDEST SWAP4 POP POP PUSH1 0x20 PUSH2 0xC77 DUP7 DUP3 DUP8 ADD PUSH2 0x6AB JUMP JUMPDEST SWAP3 POP POP PUSH1 0xC0 PUSH2 0xC88 DUP7 DUP3 DUP8 ADD PUSH2 0xBBD JUMP JUMPDEST SWAP2 POP POP SWAP3 POP SWAP3 POP SWAP3 JUMP JUMPDEST PUSH0 DUP2 SWAP1 POP SWAP2 SWAP1 POP JUMP JUMPDEST PUSH0 PUSH2 0xCB5 PUSH2 0xCB0 PUSH2 0xCAB DUP5 PUSH2 0x64D JUMP JUMPDEST PUSH2 0xC92 JUMP JUMPDEST PUSH2 0x64D JUMP JUMPDEST SWAP1 POP SWAP2 SWAP1 POP JUMP JUMPDEST PUSH0 PUSH2 0xCC6 DUP3 PUSH2 0xC9B JUMP JUMPDEST SWAP1 POP SWAP2 SWAP1 POP JUMP JUMPDEST PUSH0 PUSH2 0xCD7 DUP3 PUSH2 0xCBC JUMP JUMPDEST SWAP1 POP SWAP2 SWAP1 POP JUMP JUMPDEST PUSH2 0xCE7 DUP2 PUSH2 0xCCD JUMP JUMPDEST DUP3 MSTORE POP POP JUMP JUMPDEST PUSH0 PUSH1 0x20 DUP3 ADD SWAP1 POP PUSH2 0xD00 PUSH0 DUP4 ADD DUP5 PUSH2 0xCDE JUMP JUMPDEST SWAP3 SWAP2 POP POP JUMP JUMPDEST PUSH0 DUP1 PUSH0 PUSH1 0xE0 DUP5 DUP7 SUB SLT ISZERO PUSH2 0xD1D JUMPI PUSH2 0xD1C PUSH2 0x645 JUMP JUMPDEST JUMPDEST PUSH0 PUSH2 0xD2A DUP7 DUP3 DUP8 ADD PUSH2 0x693 JUMP JUMPDEST SWAP4 POP POP PUSH1 0x20 PUSH2 0xD3B DUP7 DUP3 DUP8 ADD PUSH2 0x6AB JUMP JUMPDEST SWAP3 POP POP PUSH1 0xC0 PUSH2 0xD4C DUP7 DUP3 DUP8 ADD PUSH2 0xB0E JUMP JUMPDEST SWAP2 POP POP SWAP3 POP SWAP3 POP SWAP3 JUMP JUMPDEST PUSH0 DUP2 SWAP1 POP SWAP3 SWAP2 POP POP JUMP JUMPDEST DUP3 DUP2 DUP4 CALLDATACOPY PUSH0 DUP4 DUP4 ADD MSTORE POP POP POP JUMP JUMPDEST PUSH0 PUSH2 0xD79 DUP4 DUP6 PUSH2 0xD56 JUMP JUMPDEST SWAP4 POP PUSH2 0xD86 DUP4 DUP6 DUP5 PUSH2 0xD60 JUMP JUMPDEST DUP3 DUP5 ADD SWAP1 POP SWAP4 SWAP3 POP POP POP JUMP JUMPDEST PUSH0 PUSH2 0xD9E DUP3 DUP5 DUP7 PUSH2 0xD6E JUMP JUMPDEST SWAP2 POP DUP2 SWAP1 POP SWAP4 SWAP3 POP POP POP JUMP INVALID LOG2 PUSH5 0x6970667358 0x22 SLT KECCAK256 0xEE GASLIMIT CALLVALUE PUSH7 0xEDE3502F16FEF4 0xBF LOG0 0xE4 0xD4 DELEGATECALL 0xBD PUSH6 0xE2442AD21418 0xCC 0x4B JUMPDEST 0xD1 SWAP3 CALL PUSH25 0x8464736F6C6343000815003300000000000000000000000000 "
		},
		"gasEstimates": {
			"creation": {
				"codeDepositCost": "710400",
				"executionCost": "infinite",
				"totalCost": "infinite"
			},
			"external": {
				"afterDonate(address,(address,address,uint24,int24,address),uint256,uint256)": "infinite",
				"afterInitialize(address,(address,address,uint24,int24,address),uint160,int24)": "infinite",
				"afterModifyPosition(address,(address,address,uint24,int24,address),(int24,int24,int256),int256)": "884",
				"afterSwap(address,(address,address,uint24,int24,address),(bool,int256,uint160),int256)": "905",
				"beforeDonate(address,(address,address,uint24,int24,address),uint256,uint256)": "infinite",
				"beforeInitialize(address,(address,address,uint24,int24,address),uint160)": "infinite",
				"beforeModifyPosition(address,(address,address,uint24,int24,address),(int24,int24,int256))": "690",
				"beforeSwap(address,(address,address,uint24,int24,address),(bool,int256,uint160))": "755",
				"getHooksCalls()": "infinite",
				"lockAcquired(uint256,bytes)": "infinite",
				"poolManager()": "infinite"
			}
		},
		"methodIdentifiers": {
			"afterDonate(address,(address,address,uint24,int24,address),uint256,uint256)": "43c4407e",
			"afterInitialize(address,(address,address,uint24,int24,address),uint160,int24)": "6fe7e6eb",
			"afterModifyPosition(address,(address,address,uint24,int24,address),(int24,int24,int256),int256)": "0e2059f5",
			"afterSwap(address,(address,address,uint24,int24,address),(bool,int256,uint160),int256)": "a5aa370a",
			"beforeDonate(address,(address,address,uint24,int24,address),uint256,uint256)": "4dbb99a6",
			"beforeInitialize(address,(address,address,uint24,int24,address),uint160)": "dc98354e",
			"beforeModifyPosition(address,(address,address,uint24,int24,address),(int24,int24,int256))": "0dbe5dbd",
			"beforeSwap(address,(address,address,uint24,int24,address),(bool,int256,uint160))": "b3f97f80",
			"getHooksCalls()": "612c39b7",
			"lockAcquired(uint256,bytes)": "3c74bf4c",
			"poolManager()": "dc4c90d3"
		}
	},
	"abi": [
		{
			"inputs": [
				{
					"internalType": "contract IPoolManager",
					"name": "_poolManager",
					"type": "address"
				}
			],
			"stateMutability": "nonpayable",
			"type": "constructor"
		},
		{
			"inputs": [
				{
					"internalType": "address",
					"name": "hooks",
					"type": "address"
				}
			],
			"name": "HookAddressNotValid",
			"type": "error"
		},
		{
			"inputs": [],
			"name": "HookNotImplemented",
			"type": "error"
		},
		{
			"inputs": [],
			"name": "InvalidPool",
			"type": "error"
		},
		{
			"inputs": [],
			"name": "LockFailure",
			"type": "error"
		},
		{
			"inputs": [],
			"name": "NotPoolManager",
			"type": "error"
		},
		{
			"inputs": [],
			"name": "NotSelf",
			"type": "error"
		},
		{
			"inputs": [
				{
					"internalType": "address",
					"name": "",
					"type": "address"
				},
				{
					"components": [
						{
							"internalType": "Currency",
							"name": "currency0",
							"type": "address"
						},
						{
							"internalType": "Currency",
							"name": "currency1",
							"type": "address"
						},
						{
							"internalType": "uint24",
							"name": "fee",
							"type": "uint24"
						},
						{
							"internalType": "int24",
							"name": "tickSpacing",
							"type": "int24"
						},
						{
							"internalType": "contract IHooks",
							"name": "hooks",
							"type": "address"
						}
					],
					"internalType": "struct PoolKey",
					"name": "",
					"type": "tuple"
				},
				{
					"internalType": "uint256",
					"name": "",
					"type": "uint256"
				},
				{
					"internalType": "uint256",
					"name": "",
					"type": "uint256"
				}
			],
			"name": "afterDonate",
			"outputs": [
				{
					"internalType": "bytes4",
					"name": "",
					"type": "bytes4"
				}
			],
			"stateMutability": "nonpayable",
			"type": "function"
		},
		{
			"inputs": [
				{
					"internalType": "address",
					"name": "",
					"type": "address"
				},
				{
					"components": [
						{
							"internalType": "Currency",
							"name": "currency0",
							"type": "address"
						},
						{
							"internalType": "Currency",
							"name": "currency1",
							"type": "address"
						},
						{
							"internalType": "uint24",
							"name": "fee",
							"type": "uint24"
						},
						{
							"internalType": "int24",
							"name": "tickSpacing",
							"type": "int24"
						},
						{
							"internalType": "contract IHooks",
							"name": "hooks",
							"type": "address"
						}
					],
					"internalType": "struct PoolKey",
					"name": "",
					"type": "tuple"
				},
				{
					"internalType": "uint160",
					"name": "",
					"type": "uint160"
				},
				{
					"internalType": "int24",
					"name": "",
					"type": "int24"
				}
			],
			"name": "afterInitialize",
			"outputs": [
				{
					"internalType": "bytes4",
					"name": "",
					"type": "bytes4"
				}
			],
			"stateMutability": "nonpayable",
			"type": "function"
		},
		{
			"inputs": [
				{
					"internalType": "address",
					"name": "",
					"type": "address"
				},
				{
					"components": [
						{
							"internalType": "Currency",
							"name": "currency0",
							"type": "address"
						},
						{
							"internalType": "Currency",
							"name": "currency1",
							"type": "address"
						},
						{
							"internalType": "uint24",
							"name": "fee",
							"type": "uint24"
						},
						{
							"internalType": "int24",
							"name": "tickSpacing",
							"type": "int24"
						},
						{
							"internalType": "contract IHooks",
							"name": "hooks",
							"type": "address"
						}
					],
					"internalType": "struct PoolKey",
					"name": "",
					"type": "tuple"
				},
				{
					"components": [
						{
							"internalType": "int24",
							"name": "tickLower",
							"type": "int24"
						},
						{
							"internalType": "int24",
							"name": "tickUpper",
							"type": "int24"
						},
						{
							"internalType": "int256",
							"name": "liquidityDelta",
							"type": "int256"
						}
					],
					"internalType": "struct IPoolManager.ModifyPositionParams",
					"name": "",
					"type": "tuple"
				},
				{
					"internalType": "BalanceDelta",
					"name": "",
					"type": "int256"
				}
			],
			"name": "afterModifyPosition",
			"outputs": [
				{
					"internalType": "bytes4",
					"name": "",
					"type": "bytes4"
				}
			],
			"stateMutability": "nonpayable",
			"type": "function"
		},
		{
			"inputs": [
				{
					"internalType": "address",
					"name": "",
					"type": "address"
				},
				{
					"components": [
						{
							"internalType": "Currency",
							"name": "currency0",
							"type": "address"
						},
						{
							"internalType": "Currency",
							"name": "currency1",
							"type": "address"
						},
						{
							"internalType": "uint24",
							"name": "fee",
							"type": "uint24"
						},
						{
							"internalType": "int24",
							"name": "tickSpacing",
							"type": "int24"
						},
						{
							"internalType": "contract IHooks",
							"name": "hooks",
							"type": "address"
						}
					],
					"internalType": "struct PoolKey",
					"name": "",
					"type": "tuple"
				},
				{
					"components": [
						{
							"internalType": "bool",
							"name": "zeroForOne",
							"type": "bool"
						},
						{
							"internalType": "int256",
							"name": "amountSpecified",
							"type": "int256"
						},
						{
							"internalType": "uint160",
							"name": "sqrtPriceLimitX96",
							"type": "uint160"
						}
					],
					"internalType": "struct IPoolManager.SwapParams",
					"name": "",
					"type": "tuple"
				},
				{
					"internalType": "BalanceDelta",
					"name": "",
					"type": "int256"
				}
			],
			"name": "afterSwap",
			"outputs": [
				{
					"internalType": "bytes4",
					"name": "",
					"type": "bytes4"
				}
			],
			"stateMutability": "nonpayable",
			"type": "function"
		},
		{
			"inputs": [
				{
					"internalType": "address",
					"name": "",
					"type": "address"
				},
				{
					"components": [
						{
							"internalType": "Currency",
							"name": "currency0",
							"type": "address"
						},
						{
							"internalType": "Currency",
							"name": "currency1",
							"type": "address"
						},
						{
							"internalType": "uint24",
							"name": "fee",
							"type": "uint24"
						},
						{
							"internalType": "int24",
							"name": "tickSpacing",
							"type": "int24"
						},
						{
							"internalType": "contract IHooks",
							"name": "hooks",
							"type": "address"
						}
					],
					"internalType": "struct PoolKey",
					"name": "",
					"type": "tuple"
				},
				{
					"internalType": "uint256",
					"name": "",
					"type": "uint256"
				},
				{
					"internalType": "uint256",
					"name": "",
					"type": "uint256"
				}
			],
			"name": "beforeDonate",
			"outputs": [
				{
					"internalType": "bytes4",
					"name": "",
					"type": "bytes4"
				}
			],
			"stateMutability": "nonpayable",
			"type": "function"
		},
		{
			"inputs": [
				{
					"internalType": "address",
					"name": "",
					"type": "address"
				},
				{
					"components": [
						{
							"internalType": "Currency",
							"name": "currency0",
							"type": "address"
						},
						{
							"internalType": "Currency",
							"name": "currency1",
							"type": "address"
						},
						{
							"internalType": "uint24",
							"name": "fee",
							"type": "uint24"
						},
						{
							"internalType": "int24",
							"name": "tickSpacing",
							"type": "int24"
						},
						{
							"internalType": "contract IHooks",
							"name": "hooks",
							"type": "address"
						}
					],
					"internalType": "struct PoolKey",
					"name": "",
					"type": "tuple"
				},
				{
					"internalType": "uint160",
					"name": "",
					"type": "uint160"
				}
			],
			"name": "beforeInitialize",
			"outputs": [
				{
					"internalType": "bytes4",
					"name": "",
					"type": "bytes4"
				}
			],
			"stateMutability": "nonpayable",
			"type": "function"
		},
		{
			"inputs": [
				{
					"internalType": "address",
					"name": "",
					"type": "address"
				},
				{
					"components": [
						{
							"internalType": "Currency",
							"name": "currency0",
							"type": "address"
						},
						{
							"internalType": "Currency",
							"name": "currency1",
							"type": "address"
						},
						{
							"internalType": "uint24",
							"name": "fee",
							"type": "uint24"
						},
						{
							"internalType": "int24",
							"name": "tickSpacing",
							"type": "int24"
						},
						{
							"internalType": "contract IHooks",
							"name": "hooks",
							"type": "address"
						}
					],
					"internalType": "struct PoolKey",
					"name": "",
					"type": "tuple"
				},
				{
					"components": [
						{
							"internalType": "int24",
							"name": "tickLower",
							"type": "int24"
						},
						{
							"internalType": "int24",
							"name": "tickUpper",
							"type": "int24"
						},
						{
							"internalType": "int256",
							"name": "liquidityDelta",
							"type": "int256"
						}
					],
					"internalType": "struct IPoolManager.ModifyPositionParams",
					"name": "",
					"type": "tuple"
				}
			],
			"name": "beforeModifyPosition",
			"outputs": [
				{
					"internalType": "bytes4",
					"name": "",
					"type": "bytes4"
				}
			],
			"stateMutability": "nonpayable",
			"type": "function"
		},
		{
			"inputs": [
				{
					"internalType": "address",
					"name": "",
					"type": "address"
				},
				{
					"components": [
						{
							"internalType": "Currency",
							"name": "currency0",
							"type": "address"
						},
						{
							"internalType": "Currency",
							"name": "currency1",
							"type": "address"
						},
						{
							"internalType": "uint24",
							"name": "fee",
							"type": "uint24"
						},
						{
							"internalType": "int24",
							"name": "tickSpacing",
							"type": "int24"
						},
						{
							"internalType": "contract IHooks",
							"name": "hooks",
							"type": "address"
						}
					],
					"internalType": "struct PoolKey",
					"name": "",
					"type": "tuple"
				},
				{
					"components": [
						{
							"internalType": "bool",
							"name": "zeroForOne",
							"type": "bool"
						},
						{
							"internalType": "int256",
							"name": "amountSpecified",
							"type": "int256"
						},
						{
							"internalType": "uint160",
							"name": "sqrtPriceLimitX96",
							"type": "uint160"
						}
					],
					"internalType": "struct IPoolManager.SwapParams",
					"name": "",
					"type": "tuple"
				}
			],
			"name": "beforeSwap",
			"outputs": [
				{
					"internalType": "bytes4",
					"name": "",
					"type": "bytes4"
				}
			],
			"stateMutability": "nonpayable",
			"type": "function"
		},
		{
			"inputs": [],
			"name": "getHooksCalls",
			"outputs": [
				{
					"components": [
						{
							"internalType": "bool",
							"name": "beforeInitialize",
							"type": "bool"
						},
						{
							"internalType": "bool",
							"name": "afterInitialize",
							"type": "bool"
						},
						{
							"internalType": "bool",
							"name": "beforeModifyPosition",
							"type": "bool"
						},
						{
							"internalType": "bool",
							"name": "afterModifyPosition",
							"type": "bool"
						},
						{
							"internalType": "bool",
							"name": "beforeSwap",
							"type": "bool"
						},
						{
							"internalType": "bool",
							"name": "afterSwap",
							"type": "bool"
						},
						{
							"internalType": "bool",
							"name": "beforeDonate",
							"type": "bool"
						},
						{
							"internalType": "bool",
							"name": "afterDonate",
							"type": "bool"
						}
					],
					"internalType": "struct Hooks.Calls",
					"name": "",
					"type": "tuple"
				}
			],
			"stateMutability": "pure",
			"type": "function"
		},
		{
			"inputs": [
				{
					"internalType": "uint256",
					"name": "",
					"type": "uint256"
				},
				{
					"internalType": "bytes",
					"name": "data",
					"type": "bytes"
				}
			],
			"name": "lockAcquired",
			"outputs": [
				{
					"internalType": "bytes",
					"name": "",
					"type": "bytes"
				}
			],
			"stateMutability": "nonpayable",
			"type": "function"
		},
		{
			"inputs": [],
			"name": "poolManager",
			"outputs": [
				{
					"internalType": "contract IPoolManager",
					"name": "",
					"type": "address"
				}
			],
			"stateMutability": "view",
			"type": "function"
		}
	]
}