{
	".deps/github/Uniswap/v4-core/contracts/types/Currency.sol": {
		"CurrencyLibrary": {
			"abi": [
				{
					"inputs": [],
					"name": "ERC20TransferFailed",
					"type": "error"
				},
				{
					"inputs": [],
					"name": "NativeTransferFailed",
					"type": "error"
				},
				{
					"inputs": [],
					"name": "NATIVE",
					"outputs": [
						{
							"internalType": "Currency",
							"name": "",
							"type": "address"
						}
					],
					"stateMutability": "view",
					"type": "function"
				}
			],
			"devdoc": {
				"details": "This library allows for transferring and holding native tokens and ERC20 tokens",
				"kind": "dev",
				"methods": {},
				"title": "CurrencyLibrary",
				"version": 1
			},
			"evm": {
				"assembly": "    /* \".deps/github/Uniswap/v4-core/contracts/types/Currency.sol\":287:3415  library CurrencyLibrary {... */\n  dataSize(sub_0)\n  dataOffset(sub_0)\n  0x0b\n  dup3\n  dup3\n  dup3\n  codecopy\n  dup1\n  mload\n  0x00\n  byte\n  0x73\n  eq\n  tag_1\n  jumpi\n  mstore(0x00, 0x4e487b7100000000000000000000000000000000000000000000000000000000)\n  mstore(0x04, 0x00)\n  revert(0x00, 0x24)\ntag_1:\n  mstore(0x00, address)\n  0x73\n  dup2\n  mstore8\n  dup3\n  dup2\n  return\nstop\n\nsub_0: assembly {\n        /* \".deps/github/Uniswap/v4-core/contracts/types/Currency.sol\":287:3415  library CurrencyLibrary {... */\n      eq(address, deployTimeAddress())\n      mstore(0x40, 0x80)\n      jumpi(tag_1, lt(calldatasize, 0x04))\n      shr(0xe0, calldataload(0x00))\n      dup1\n      0xa0cf0aea\n      eq\n      tag_2\n      jumpi\n    tag_1:\n      0x00\n      dup1\n      revert\n        /* \".deps/github/Uniswap/v4-core/contracts/types/Currency.sol\":531:590  Currency public constant NATIVE = Currency.wrap(address(0)) */\n    tag_2:\n      tag_3\n      tag_4\n      jump\t// in\n    tag_3:\n      mload(0x40)\n      tag_5\n      swap2\n      swap1\n      tag_6\n      jump\t// in\n    tag_5:\n      mload(0x40)\n      dup1\n      swap2\n      sub\n      swap1\n      return\n    tag_4:\n        /* \".deps/github/Uniswap/v4-core/contracts/types/Currency.sol\":587:588  0 */\n      0x00\n        /* \".deps/github/Uniswap/v4-core/contracts/types/Currency.sol\":531:590  Currency public constant NATIVE = Currency.wrap(address(0)) */\n      dup2\n      jump\t// out\n        /* \"#utility.yul\":7:133   */\n    tag_7:\n        /* \"#utility.yul\":44:51   */\n      0x00\n        /* \"#utility.yul\":84:126   */\n      0xffffffffffffffffffffffffffffffffffffffff\n        /* \"#utility.yul\":77:82   */\n      dup3\n        /* \"#utility.yul\":73:127   */\n      and\n        /* \"#utility.yul\":62:127   */\n      swap1\n      pop\n        /* \"#utility.yul\":7:133   */\n      swap2\n      swap1\n      pop\n      jump\t// out\n        /* \"#utility.yul\":139:199   */\n    tag_8:\n        /* \"#utility.yul\":167:170   */\n      0x00\n        /* \"#utility.yul\":188:193   */\n      dup2\n        /* \"#utility.yul\":181:193   */\n      swap1\n      pop\n        /* \"#utility.yul\":139:199   */\n      swap2\n      swap1\n      pop\n      jump\t// out\n        /* \"#utility.yul\":205:347   */\n    tag_9:\n        /* \"#utility.yul\":255:264   */\n      0x00\n        /* \"#utility.yul\":288:341   */\n      tag_17\n        /* \"#utility.yul\":306:340   */\n      tag_18\n        /* \"#utility.yul\":315:339   */\n      tag_19\n        /* \"#utility.yul\":333:338   */\n      dup5\n        /* \"#utility.yul\":315:339   */\n      tag_7\n      jump\t// in\n    tag_19:\n        /* \"#utility.yul\":306:340   */\n      tag_8\n      jump\t// in\n    tag_18:\n        /* \"#utility.yul\":288:341   */\n      tag_7\n      jump\t// in\n    tag_17:\n        /* \"#utility.yul\":275:341   */\n      swap1\n      pop\n        /* \"#utility.yul\":205:347   */\n      swap2\n      swap1\n      pop\n      jump\t// out\n        /* \"#utility.yul\":353:479   */\n    tag_10:\n        /* \"#utility.yul\":403:412   */\n      0x00\n        /* \"#utility.yul\":436:473   */\n      tag_21\n        /* \"#utility.yul\":467:472   */\n      dup3\n        /* \"#utility.yul\":436:473   */\n      tag_9\n      jump\t// in\n    tag_21:\n        /* \"#utility.yul\":423:473   */\n      swap1\n      pop\n        /* \"#utility.yul\":353:479   */\n      swap2\n      swap1\n      pop\n      jump\t// out\n        /* \"#utility.yul\":485:611   */\n    tag_11:\n        /* \"#utility.yul\":535:544   */\n      0x00\n        /* \"#utility.yul\":568:605   */\n      tag_23\n        /* \"#utility.yul\":599:604   */\n      dup3\n        /* \"#utility.yul\":568:605   */\n      tag_10\n      jump\t// in\n    tag_23:\n        /* \"#utility.yul\":555:605   */\n      swap1\n      pop\n        /* \"#utility.yul\":485:611   */\n      swap2\n      swap1\n      pop\n      jump\t// out\n        /* \"#utility.yul\":617:785   */\n    tag_12:\n        /* \"#utility.yul\":741:778   */\n      tag_25\n        /* \"#utility.yul\":772:777   */\n      dup2\n        /* \"#utility.yul\":741:778   */\n      tag_11\n      jump\t// in\n    tag_25:\n        /* \"#utility.yul\":736:739   */\n      dup3\n        /* \"#utility.yul\":729:779   */\n      mstore\n        /* \"#utility.yul\":617:785   */\n      pop\n      pop\n      jump\t// out\n        /* \"#utility.yul\":791:1087   */\n    tag_6:\n        /* \"#utility.yul\":921:925   */\n      0x00\n        /* \"#utility.yul\":959:961   */\n      0x20\n        /* \"#utility.yul\":948:957   */\n      dup3\n        /* \"#utility.yul\":944:962   */\n      add\n        /* \"#utility.yul\":936:962   */\n      swap1\n      pop\n        /* \"#utility.yul\":972:1080   */\n      tag_27\n        /* \"#utility.yul\":1077:1078   */\n      0x00\n        /* \"#utility.yul\":1066:1075   */\n      dup4\n        /* \"#utility.yul\":1062:1079   */\n      add\n        /* \"#utility.yul\":1053:1059   */\n      dup5\n        /* \"#utility.yul\":972:1080   */\n      tag_12\n      jump\t// in\n    tag_27:\n        /* \"#utility.yul\":791:1087   */\n      swap3\n      swap2\n      pop\n      pop\n      jump\t// out\n\n    auxdata: 0xa264697066735822122039f745d1deae152ee889908eae07be844f32819d166110d7e3c53280b0f8a0dc64736f6c63430008150033\n}\n",
				"bytecode": {
					"linkReferences": {},
					"object": "61010f61004e600b8282823980515f1a607314610042577f4e487b71000000000000000000000000000000000000000000000000000000005f525f60045260245ffd5b305f52607381538281f3fe73000000000000000000000000000000000000000030146080604052600436106032575f3560e01c8063a0cf0aea146036575b5f80fd5b603c6050565b6040516047919060c2565b60405180910390f35b5f81565b5f73ffffffffffffffffffffffffffffffffffffffff82169050919050565b5f819050919050565b5f6090608c6088846054565b6073565b6054565b9050919050565b5f609f82607c565b9050919050565b5f60ae826097565b9050919050565b60bc8160a6565b82525050565b5f60208201905060d35f83018460b5565b9291505056fea264697066735822122039f745d1deae152ee889908eae07be844f32819d166110d7e3c53280b0f8a0dc64736f6c63430008150033",
					"opcodes": "PUSH2 0x10F PUSH2 0x4E PUSH1 0xB DUP3 DUP3 DUP3 CODECOPY DUP1 MLOAD PUSH0 BYTE PUSH1 0x73 EQ PUSH2 0x42 JUMPI PUSH32 0x4E487B7100000000000000000000000000000000000000000000000000000000 PUSH0 MSTORE PUSH0 PUSH1 0x4 MSTORE PUSH1 0x24 PUSH0 REVERT JUMPDEST ADDRESS PUSH0 MSTORE PUSH1 0x73 DUP2 MSTORE8 DUP3 DUP2 RETURN INVALID PUSH20 0x0 ADDRESS EQ PUSH1 0x80 PUSH1 0x40 MSTORE PUSH1 0x4 CALLDATASIZE LT PUSH1 0x32 JUMPI PUSH0 CALLDATALOAD PUSH1 0xE0 SHR DUP1 PUSH4 0xA0CF0AEA EQ PUSH1 0x36 JUMPI JUMPDEST PUSH0 DUP1 REVERT JUMPDEST PUSH1 0x3C PUSH1 0x50 JUMP JUMPDEST PUSH1 0x40 MLOAD PUSH1 0x47 SWAP2 SWAP1 PUSH1 0xC2 JUMP JUMPDEST PUSH1 0x40 MLOAD DUP1 SWAP2 SUB SWAP1 RETURN JUMPDEST PUSH0 DUP2 JUMP JUMPDEST PUSH0 PUSH20 0xFFFFFFFFFFFFFFFFFFFFFFFFFFFFFFFFFFFFFFFF DUP3 AND SWAP1 POP SWAP2 SWAP1 POP JUMP JUMPDEST PUSH0 DUP2 SWAP1 POP SWAP2 SWAP1 POP JUMP JUMPDEST PUSH0 PUSH1 0x90 PUSH1 0x8C PUSH1 0x88 DUP5 PUSH1 0x54 JUMP JUMPDEST PUSH1 0x73 JUMP JUMPDEST PUSH1 0x54 JUMP JUMPDEST SWAP1 POP SWAP2 SWAP1 POP JUMP JUMPDEST PUSH0 PUSH1 0x9F DUP3 PUSH1 0x7C JUMP JUMPDEST SWAP1 POP SWAP2 SWAP1 POP JUMP JUMPDEST PUSH0 PUSH1 0xAE DUP3 PUSH1 0x97 JUMP JUMPDEST SWAP1 POP SWAP2 SWAP1 POP JUMP JUMPDEST PUSH1 0xBC DUP2 PUSH1 0xA6 JUMP JUMPDEST DUP3 MSTORE POP POP JUMP JUMPDEST PUSH0 PUSH1 0x20 DUP3 ADD SWAP1 POP PUSH1 0xD3 PUSH0 DUP4 ADD DUP5 PUSH1 0xB5 JUMP JUMPDEST SWAP3 SWAP2 POP POP JUMP INVALID LOG2 PUSH5 0x6970667358 0x22 SLT KECCAK256 CODECOPY 0xF7 GASLIMIT 0xD1 0xDE 0xAE ISZERO 0x2E 0xE8 DUP10 SWAP1 DUP15 0xAE SMOD 0xBE DUP5 0x4F ORIGIN DUP2 SWAP14 AND PUSH2 0x10D7 0xE3 0xC5 ORIGIN DUP1 0xB0 0xF8 LOG0 0xDC PUSH5 0x736F6C6343 STOP ADDMOD ISZERO STOP CALLER "
				},
				"gasEstimates": {
					"creation": {
						"codeDepositCost": "54200",
						"executionCost": "128",
						"totalCost": "54328"
					},
					"external": {
						"NATIVE()": "infinite"
					},
					"internal": {
						"balanceOfSelf(Currency)": "infinite",
						"equals(Currency,Currency)": "infinite",
						"fromId(uint256)": "infinite",
						"isNative(Currency)": "infinite",
						"toId(Currency)": "infinite",
						"transfer(Currency,address,uint256)": "infinite"
					}
				},
				"methodIdentifiers": {
					"NATIVE()": "a0cf0aea"
				}
			},
			"storageLayout": {
				"storage": [],
				"types": null
			},
			"userdoc": {
				"errors": {
					"ERC20TransferFailed()": [
						{
							"notice": "Thrown when an ERC20 transfer fails"
						}
					],
					"NativeTransferFailed()": [
						{
							"notice": "Thrown when a native transfer fails"
						}
					]
				},
				"kind": "user",
				"methods": {},
				"version": 1
			}
		}
	}
}